{
  "address": "0x1e1308CbA15b59805Ce957B788566d51f1b76B94",
  "abi": [
    {
      "inputs": [],
      "name": "counter",
      "outputs": [
        {
          "internalType": "uint256",
          "name": "",
          "type": "uint256"
        }
      ],
      "stateMutability": "view",
      "type": "function"
    },
    {
      "inputs": [],
      "name": "increment",
      "outputs": [],
      "stateMutability": "nonpayable",
      "type": "function"
    }
  ],
  "transactionHash": "0x84b3fd5f4ac17b06cb171894ff8e6e2f6800f125b3d2b421df280cb407633f1e",
  "args": [],
  "numDeployments": 1,
  "solcInputHash": "b2cabb0e7dadb16258578770af403c7f",
  "bytecode": "0x608060405234801561001057600080fd5b5060c98061001f6000396000f3fe6080604052348015600f57600080fd5b506004361060325760003560e01c806361bc221a146037578063d09de08a146051575b600080fd5b603f60005481565b60405190815260200160405180910390f35b60576059565b005b600080549080606683606d565b9190505550565b600060018201608c57634e487b7160e01b600052601160045260246000fd5b506001019056fea26469706673582212203c40956b95e8b9e0b5ca116a852a9021413a4ef5d735e5bb1f1cc8807edca4c964736f6c63430008140033",
  "devdoc": {
    "kind": "dev",
    "methods": {},
    "version": 1
  },
  "userdoc": {
    "kind": "user",
    "methods": {},
    "version": 1
  },
  "storageLayout": {
    "storage": [
      {
        "astId": 3,
        "contract": "contracts/YourContract.sol:YourContract",
        "label": "counter",
        "offset": 0,
        "slot": "0",
        "type": "t_uint256"
      }
    ],
    "types": {
      "t_uint256": {
        "encoding": "inplace",
        "label": "uint256",
        "numberOfBytes": "32"
      }
    }
  }
}